{
  "contractName": "SteakHouse",
  "abi": [
    {
      "constant": true,
      "inputs": [],
      "name": "ceoAddress",
      "outputs": [
        {
          "name": "",
          "type": "address"
        }
      ],
      "payable": false,
      "stateMutability": "view",
      "type": "function"
    },
    {
      "constant": true,
      "inputs": [],
      "name": "initialized",
      "outputs": [
        {
          "name": "",
          "type": "bool"
        }
      ],
      "payable": false,
      "stateMutability": "view",
      "type": "function"
    },
    {
      "constant": true,
      "inputs": [],
      "name": "marketEggs",
      "outputs": [
        {
          "name": "",
          "type": "uint256"
        }
      ],
      "payable": false,
      "stateMutability": "view",
      "type": "function"
    },
    {
      "constant": true,
      "inputs": [
        {
          "name": "",
          "type": "address"
        }
      ],
      "name": "lastHatch",
      "outputs": [
        {
          "name": "",
          "type": "uint256"
        }
      ],
      "payable": false,
      "stateMutability": "view",
      "type": "function"
    },
    {
      "constant": true,
      "inputs": [
        {
          "name": "",
          "type": "address"
        }
      ],
      "name": "claimedEggs",
      "outputs": [
        {
          "name": "",
          "type": "uint256"
        }
      ],
      "payable": false,
      "stateMutability": "view",
      "type": "function"
    },
    {
      "constant": true,
      "inputs": [
        {
          "name": "",
          "type": "address"
        }
      ],
      "name": "hatcheryMiners",
      "outputs": [
        {
          "name": "",
          "type": "uint256"
        }
      ],
      "payable": false,
      "stateMutability": "view",
      "type": "function"
    },
    {
      "constant": true,
      "inputs": [],
      "name": "EGGS_TO_HATCH_1MINERS",
      "outputs": [
        {
          "name": "",
          "type": "uint256"
        }
      ],
      "payable": false,
      "stateMutability": "view",
      "type": "function"
    },
    {
      "constant": true,
      "inputs": [
        {
          "name": "",
          "type": "address"
        }
      ],
      "name": "referrals",
      "outputs": [
        {
          "name": "",
          "type": "address"
        }
      ],
      "payable": false,
      "stateMutability": "view",
      "type": "function"
    },
    {
      "inputs": [],
      "payable": false,
      "stateMutability": "nonpayable",
      "type": "constructor"
    },
    {
      "constant": false,
      "inputs": [
        {
          "name": "ref",
          "type": "address"
        }
      ],
      "name": "regrillSteak",
      "outputs": [],
      "payable": false,
      "stateMutability": "nonpayable",
      "type": "function"
    },
    {
      "constant": false,
      "inputs": [],
      "name": "eatSteak",
      "outputs": [],
      "payable": false,
      "stateMutability": "nonpayable",
      "type": "function"
    },
    {
      "constant": false,
      "inputs": [
        {
          "name": "ref",
          "type": "address"
        }
      ],
      "name": "grillSteak",
      "outputs": [],
      "payable": true,
      "stateMutability": "payable",
      "type": "function"
    },
    {
      "constant": true,
      "inputs": [
        {
          "name": "rt",
          "type": "uint256"
        },
        {
          "name": "rs",
          "type": "uint256"
        },
        {
          "name": "bs",
          "type": "uint256"
        }
      ],
      "name": "calculateTrade",
      "outputs": [
        {
          "name": "",
          "type": "uint256"
        }
      ],
      "payable": false,
      "stateMutability": "view",
      "type": "function"
    },
    {
      "constant": true,
      "inputs": [
        {
          "name": "eggs",
          "type": "uint256"
        }
      ],
      "name": "calculateEggSell",
      "outputs": [
        {
          "name": "",
          "type": "uint256"
        }
      ],
      "payable": false,
      "stateMutability": "view",
      "type": "function"
    },
    {
      "constant": true,
      "inputs": [
        {
          "name": "eth",
          "type": "uint256"
        },
        {
          "name": "contractBalance",
          "type": "uint256"
        }
      ],
      "name": "calculateEggBuy",
      "outputs": [
        {
          "name": "",
          "type": "uint256"
        }
      ],
      "payable": false,
      "stateMutability": "view",
      "type": "function"
    },
    {
      "constant": true,
      "inputs": [
        {
          "name": "eth",
          "type": "uint256"
        }
      ],
      "name": "calculateEggBuySimple",
      "outputs": [
        {
          "name": "",
          "type": "uint256"
        }
      ],
      "payable": false,
      "stateMutability": "view",
      "type": "function"
    },
    {
      "constant": true,
      "inputs": [
        {
          "name": "amount",
          "type": "uint256"
        }
      ],
      "name": "devFee",
      "outputs": [
        {
          "name": "",
          "type": "uint256"
        }
      ],
      "payable": false,
      "stateMutability": "pure",
      "type": "function"
    },
    {
      "constant": false,
      "inputs": [],
      "name": "openKitchen",
      "outputs": [],
      "payable": true,
      "stateMutability": "payable",
      "type": "function"
    },
    {
      "constant": true,
      "inputs": [],
      "name": "getBalance",
      "outputs": [
        {
          "name": "",
          "type": "uint256"
        }
      ],
      "payable": false,
      "stateMutability": "view",
      "type": "function"
    },
    {
      "constant": true,
      "inputs": [],
      "name": "getMyMiners",
      "outputs": [
        {
          "name": "",
          "type": "uint256"
        }
      ],
      "payable": false,
      "stateMutability": "view",
      "type": "function"
    },
    {
      "constant": true,
      "inputs": [],
      "name": "getMyEggs",
      "outputs": [
        {
          "name": "",
          "type": "uint256"
        }
      ],
      "payable": false,
      "stateMutability": "view",
      "type": "function"
    },
    {
      "constant": true,
      "inputs": [
        {
          "name": "adr",
          "type": "address"
        }
      ],
      "name": "getEggsSinceLastHatch",
      "outputs": [
        {
          "name": "",
          "type": "uint256"
        }
      ],
      "payable": false,
      "stateMutability": "view",
      "type": "function"
    }
  ],
  "bytecode": "0x6080604052620d2f006000556127106001556113886002556000600360006101000a81548160ff02191690831515021790555034801561003e57600080fd5b5033600360016101000a81548173ffffffffffffffffffffffffffffffffffffffff021916908373ffffffffffffffffffffffffffffffffffffffff1602179055506112f08061008f6000396000f30060806040526004361061011d576000357c0100000000000000000000000000000000000000000000000000000000900463ffffffff1680630a0f8168146101225780630a76e5ed1461017957806312065fe0146101a4578063158ef93e146101cf578063229824c4146101fe57806326fd8422146102535780632e9392bb1461029e5780633bc0461a146102c957806343ce74221461030a578063467ece79146103355780635ec737bd1461038c57806372670361146103a357806379532aa9146103fa5780637cdebc21146104515780637e56fde51461047c578063847349ef146104bd5780638e316327146104c75780639ca423b314610508578063af53d6621461058b578063d1fa8864146105ce578063d7c8843b14610604575b600080fd5b34801561012e57600080fd5b5061013761065b565b604051808273ffffffffffffffffffffffffffffffffffffffff1673ffffffffffffffffffffffffffffffffffffffff16815260200191505060405180910390f35b34801561018557600080fd5b5061018e610681565b6040518082815260200191505060405180910390f35b3480156101b057600080fd5b506101b96106c8565b6040518082815260200191505060405180910390f35b3480156101db57600080fd5b506101e46106e7565b604051808215151515815260200191505060405180910390f35b34801561020a57600080fd5b5061023d6004803603810190808035906020019092919080359060200190929190803590602001909291905050506106fa565b6040518082815260200191505060405180910390f35b34801561025f57600080fd5b50610288600480360381019080803590602001909291908035906020019092919050505061074d565b6040518082815260200191505060405180910390f35b3480156102aa57600080fd5b506102b3610764565b6040518082815260200191505060405180910390f35b3480156102d557600080fd5b506102f46004803603810190808035906020019092919050505061076a565b6040518082815260200191505060405180910390f35b34801561031657600080fd5b5061031f610788565b6040518082815260200191505060405180910390f35b34801561034157600080fd5b50610376600480360381019080803573ffffffffffffffffffffffffffffffffffffffff1690602001909291905050506107e0565b6040518082815260200191505060405180910390f35b34801561039857600080fd5b506103a16107f8565b005b3480156103af57600080fd5b506103e4600480360381019080803573ffffffffffffffffffffffffffffffffffffffff169060200190929190505050610991565b6040518082815260200191505060405180910390f35b34801561040657600080fd5b5061043b600480360381019080803573ffffffffffffffffffffffffffffffffffffffff1690602001909291905050506109a9565b6040518082815260200191505060405180910390f35b34801561045d57600080fd5b506104666109c1565b6040518082815260200191505060405180910390f35b34801561048857600080fd5b506104a7600480360381019080803590602001909291905050506109c7565b6040518082815260200191505060405180910390f35b6104c56109f1565b005b3480156104d357600080fd5b506104f260048036038101908080359060200190929190505050610af0565b6040518082815260200191505060405180910390f35b34801561051457600080fd5b50610549600480360381019080803573ffffffffffffffffffffffffffffffffffffffff169060200190929190505050610b1d565b604051808273ffffffffffffffffffffffffffffffffffffffff1673ffffffffffffffffffffffffffffffffffffffff16815260200191505060405180910390f35b34801561059757600080fd5b506105cc600480360381019080803573ffffffffffffffffffffffffffffffffffffffff169060200190929190505050610b50565b005b610602600480360381019080803573ffffffffffffffffffffffffffffffffffffffff169060200190929190505050611008565b005b34801561061057600080fd5b50610645600480360381019080803573ffffffffffffffffffffffffffffffffffffffff169060200190929190505050611174565b6040518082815260200191505060405180910390f35b600360019054906101000a900473ffffffffffffffffffffffffffffffffffffffff1681565b6000600460003373ffffffffffffffffffffffffffffffffffffffff1673ffffffffffffffffffffffffffffffffffffffff16815260200190815260200160002054905090565b60003073ffffffffffffffffffffffffffffffffffffffff1631905090565b600360009054906101000a900460ff1681565b600061074461070b6001548461121e565b61073f60025461073a6107346107236001548a61121e565b61072f6002548c61121e565b611259565b89611277565b611259565b611277565b90509392505050565b600061075c83836008546106fa565b905092915050565b60085481565b600061078161077a83600961121e565b6064611277565b9050919050565b60006107db600560003373ffffffffffffffffffffffffffffffffffffffff1673ffffffffffffffffffffffffffffffffffffffff168152602001908152602001600020546107d633611174565b611259565b905090565b60066020528060005260406000206000915090505481565b6000806000600360009054906101000a900460ff16151561081857600080fd5b610820610788565b925061082b83610af0565b91506108368261076a565b90506000600560003373ffffffffffffffffffffffffffffffffffffffff1673ffffffffffffffffffffffffffffffffffffffff1681526020019081526020016000208190555042600660003373ffffffffffffffffffffffffffffffffffffffff1673ffffffffffffffffffffffffffffffffffffffff168152602001908152602001600020819055506108cd60085484611259565b600881905550600360019054906101000a900473ffffffffffffffffffffffffffffffffffffffff1673ffffffffffffffffffffffffffffffffffffffff166108fc829081150290604051600060405180830381858888f1935050505015801561093b573d6000803e3d6000fd5b503373ffffffffffffffffffffffffffffffffffffffff166108fc6109608484611292565b9081150290604051600060405180830381858888f1935050505015801561098b573d6000803e3d6000fd5b50505050565b60056020528060005260406000206000915090505481565b60046020528060005260406000206000915090505481565b60005481565b60006109ea823073ffffffffffffffffffffffffffffffffffffffff163161074d565b9050919050565b600360019054906101000a900473ffffffffffffffffffffffffffffffffffffffff1673ffffffffffffffffffffffffffffffffffffffff163373ffffffffffffffffffffffffffffffffffffffff16141515610ab6576040517f08c379a000000000000000000000000000000000000000000000000000000000815260040180806020018281038252600c8152602001807f696e76616c69642063616c6c000000000000000000000000000000000000000081525060200191505060405180910390fd5b6000600854141515610ac757600080fd5b6001600360006101000a81548160ff02191690831515021790555064141dd76000600881905550565b6000610b16826008543073ffffffffffffffffffffffffffffffffffffffff16316106fa565b9050919050565b60076020528060005260406000206000915054906101000a900473ffffffffffffffffffffffffffffffffffffffff1681565b600080600360009054906101000a900460ff161515610b6e57600080fd5b3373ffffffffffffffffffffffffffffffffffffffff168373ffffffffffffffffffffffffffffffffffffffff161480610bd45750600073ffffffffffffffffffffffffffffffffffffffff168373ffffffffffffffffffffffffffffffffffffffff16145b80610c1e57506000600460008573ffffffffffffffffffffffffffffffffffffffff1673ffffffffffffffffffffffffffffffffffffffff16815260200190815260200160002054145b15610c4957600360019054906101000a900473ffffffffffffffffffffffffffffffffffffffff1692505b600073ffffffffffffffffffffffffffffffffffffffff16600760003373ffffffffffffffffffffffffffffffffffffffff1673ffffffffffffffffffffffffffffffffffffffff16815260200190815260200160002060009054906101000a900473ffffffffffffffffffffffffffffffffffffffff1673ffffffffffffffffffffffffffffffffffffffff161415610d5c5782600760003373ffffffffffffffffffffffffffffffffffffffff1673ffffffffffffffffffffffffffffffffffffffff16815260200190815260200160002060006101000a81548173ffffffffffffffffffffffffffffffffffffffff021916908373ffffffffffffffffffffffffffffffffffffffff1602179055505b610d64610788565b9150610d7282600054611277565b9050610dbd600460003373ffffffffffffffffffffffffffffffffffffffff1673ffffffffffffffffffffffffffffffffffffffff1681526020019081526020016000205482611259565b600460003373ffffffffffffffffffffffffffffffffffffffff1673ffffffffffffffffffffffffffffffffffffffff168152602001908152602001600020819055506000600560003373ffffffffffffffffffffffffffffffffffffffff1673ffffffffffffffffffffffffffffffffffffffff1681526020019081526020016000208190555042600660003373ffffffffffffffffffffffffffffffffffffffff1673ffffffffffffffffffffffffffffffffffffffff16815260200190815260200160002081905550610f4560056000600760003373ffffffffffffffffffffffffffffffffffffffff1673ffffffffffffffffffffffffffffffffffffffff16815260200190815260200160002060009054906101000a900473ffffffffffffffffffffffffffffffffffffffff1673ffffffffffffffffffffffffffffffffffffffff1673ffffffffffffffffffffffffffffffffffffffff16815260200190815260200160002054610f40610f3985600a61121e565b6064611277565b611259565b60056000600760003373ffffffffffffffffffffffffffffffffffffffff1673ffffffffffffffffffffffffffffffffffffffff16815260200190815260200160002060009054906101000a900473ffffffffffffffffffffffffffffffffffffffff1673ffffffffffffffffffffffffffffffffffffffff1673ffffffffffffffffffffffffffffffffffffffff16815260200190815260200160002081905550610ffd600854610ff8846005611277565b611259565b600881905550505050565b600080600360009054906101000a900460ff16151561102657600080fd5b6110503461104b3073ffffffffffffffffffffffffffffffffffffffff163134611292565b61074d565b91506110648261105f8461076a565b611292565b915061106f3461076a565b9050600360019054906101000a900473ffffffffffffffffffffffffffffffffffffffff1673ffffffffffffffffffffffffffffffffffffffff166108fc829081150290604051600060405180830381858888f193505050501580156110d9573d6000803e3d6000fd5b50611123600560003373ffffffffffffffffffffffffffffffffffffffff1673ffffffffffffffffffffffffffffffffffffffff1681526020019081526020016000205483611259565b600560003373ffffffffffffffffffffffffffffffffffffffff1673ffffffffffffffffffffffffffffffffffffffff1681526020019081526020016000208190555061116f83610b50565b505050565b6000806111cb6000546111c642600660008873ffffffffffffffffffffffffffffffffffffffff1673ffffffffffffffffffffffffffffffffffffffff16815260200190815260200160002054611292565b6112ab565b905061121681600460008673ffffffffffffffffffffffffffffffffffffffff1673ffffffffffffffffffffffffffffffffffffffff1681526020019081526020016000205461121e565b915050919050565b60008060008414156112335760009150611252565b828402905082848281151561124457fe5b0414151561124e57fe5b8091505b5092915050565b600080828401905083811015151561126d57fe5b8091505092915050565b600080828481151561128557fe5b0490508091505092915050565b60008282111515156112a057fe5b818303905092915050565b60008183106112ba57816112bc565b825b9050929150505600a165627a7a72305820c4694d6bc09a96fe76b15570ef11ed87236205dea9338c2cf9da130d9bd1be870029",
  "source": "pragma solidity ^0.4.26; // solhint-disable-line\n\n/*\nSteak House - The BNB pool with the Juicy daily return and highest referral reward\n*/\n\ncontract SteakHouse {\n    //uint256 EGGS_PER_MINERS_PER_SECOND=1;\n    uint256 public EGGS_TO_HATCH_1MINERS = 864000; //for final version should be seconds in a day\n    uint256 PSN = 10000;\n    uint256 PSNH = 5000;\n    bool public initialized = false;\n    address public ceoAddress;\n    mapping(address => uint256) public hatcheryMiners;\n    mapping(address => uint256) public claimedEggs;\n    mapping(address => uint256) public lastHatch;\n    mapping(address => address) public referrals;\n    uint256 public marketEggs;\n\n    constructor() public {\n        ceoAddress = msg.sender;\n    }\n\n    function regrillSteak(address ref) public {\n        require(initialized);\n        if (\n            ref == msg.sender || ref == address(0) || hatcheryMiners[ref] == 0\n        ) {\n            ref = ceoAddress;\n        }\n        if (referrals[msg.sender] == address(0)) {\n            referrals[msg.sender] = ref;\n        }\n        uint256 eggsUsed = getMyEggs();\n        uint256 newMiners = SafeMath.div(eggsUsed, EGGS_TO_HATCH_1MINERS);\n        hatcheryMiners[msg.sender] = SafeMath.add(\n            hatcheryMiners[msg.sender],\n            newMiners\n        );\n        claimedEggs[msg.sender] = 0;\n        lastHatch[msg.sender] = now;\n\n        //send referral eggs\n        claimedEggs[referrals[msg.sender]] = SafeMath.add(\n            claimedEggs[referrals[msg.sender]],\n            SafeMath.div(SafeMath.mul(eggsUsed, 10), 100)\n        );\n\n        //boost market to nerf miners hoarding\n        marketEggs = SafeMath.add(marketEggs, SafeMath.div(eggsUsed, 5));\n    }\n\n    function eatSteak() public {\n        require(initialized);\n        uint256 hasEggs = getMyEggs();\n        uint256 eggValue = calculateEggSell(hasEggs);\n        uint256 fee = devFee(eggValue);\n        claimedEggs[msg.sender] = 0;\n        lastHatch[msg.sender] = now;\n        marketEggs = SafeMath.add(marketEggs, hasEggs);\n        ceoAddress.transfer(fee);\n        msg.sender.transfer(SafeMath.sub(eggValue, fee));\n    }\n\n    function grillSteak(address ref) public payable {\n        require(initialized);\n        uint256 eggsBought = calculateEggBuy(\n            msg.value,\n            SafeMath.sub(address(this).balance, msg.value)\n        );\n        eggsBought = SafeMath.sub(eggsBought, devFee(eggsBought));\n        uint256 fee = devFee(msg.value);\n        ceoAddress.transfer(fee);\n        claimedEggs[msg.sender] = SafeMath.add(\n            claimedEggs[msg.sender],\n            eggsBought\n        );\n        regrillSteak(ref);\n    }\n\n    //magic trade balancing algorithm\n    function calculateTrade(\n        uint256 rt,\n        uint256 rs,\n        uint256 bs\n    ) public view returns (uint256) {\n        //(PSN*bs)/(PSNH+((PSN*rs+PSNH*rt)/rt));\n        return\n            SafeMath.div(\n                SafeMath.mul(PSN, bs),\n                SafeMath.add(\n                    PSNH,\n                    SafeMath.div(\n                        SafeMath.add(\n                            SafeMath.mul(PSN, rs),\n                            SafeMath.mul(PSNH, rt)\n                        ),\n                        rt\n                    )\n                )\n            );\n    }\n\n    function calculateEggSell(uint256 eggs) public view returns (uint256) {\n        return calculateTrade(eggs, marketEggs, address(this).balance);\n    }\n\n    function calculateEggBuy(uint256 eth, uint256 contractBalance)\n        public\n        view\n        returns (uint256)\n    {\n        return calculateTrade(eth, contractBalance, marketEggs);\n    }\n\n    function calculateEggBuySimple(uint256 eth) public view returns (uint256) {\n        return calculateEggBuy(eth, address(this).balance);\n    }\n\n    function devFee(uint256 amount) public pure returns (uint256) {\n        return SafeMath.div(SafeMath.mul(amount, 9), 100);\n    }\n\n    function openKitchen() public payable {\n        require(msg.sender == ceoAddress, \"invalid call\");\n        require(marketEggs == 0);\n        initialized = true;\n        marketEggs = 86400000000;\n    }\n\n    function getBalance() public view returns (uint256) {\n        return address(this).balance;\n    }\n\n    function getMyMiners() public view returns (uint256) {\n        return hatcheryMiners[msg.sender];\n    }\n\n    function getMyEggs() public view returns (uint256) {\n        return\n            SafeMath.add(\n                claimedEggs[msg.sender],\n                getEggsSinceLastHatch(msg.sender)\n            );\n    }\n\n    function getEggsSinceLastHatch(address adr) public view returns (uint256) {\n        uint256 secondsPassed = min(\n            EGGS_TO_HATCH_1MINERS,\n            SafeMath.sub(now, lastHatch[adr])\n        );\n        return SafeMath.mul(secondsPassed, hatcheryMiners[adr]);\n    }\n\n    function min(uint256 a, uint256 b) private pure returns (uint256) {\n        return a < b ? a : b;\n    }\n}\n\nlibrary SafeMath {\n    /**\n     * @dev Multiplies two numbers, throws on overflow.\n     */\n    function mul(uint256 a, uint256 b) internal pure returns (uint256) {\n        if (a == 0) {\n            return 0;\n        }\n        uint256 c = a * b;\n        assert(c / a == b);\n        return c;\n    }\n\n    /**\n     * @dev Integer division of two numbers, truncating the quotient.\n     */\n    function div(uint256 a, uint256 b) internal pure returns (uint256) {\n        // assert(b > 0); // Solidity automatically throws when dividing by 0\n        uint256 c = a / b;\n        // assert(a == b * c + a % b); // There is no case in which this doesn't hold\n        return c;\n    }\n\n    /**\n     * @dev Substracts two numbers, throws on overflow (i.e. if subtrahend is greater than minuend).\n     */\n    function sub(uint256 a, uint256 b) internal pure returns (uint256) {\n        assert(b <= a);\n        return a - b;\n    }\n\n    /**\n     * @dev Adds two numbers, throws on overflow.\n     */\n    function add(uint256 a, uint256 b) internal pure returns (uint256) {\n        uint256 c = a + b;\n        assert(c >= a);\n        return c;\n    }\n}\n",
  "sourcePath": "/home/zaryab/Downloads/metakoven/steak-house/src/contracts/SteakHouse.sol",
  "compiler": {
    "name": "solc",
    "version": "0.4.26+commit.4563c3fc.Emscripten.clang"
  },
  "schemaVersion": "3.4.5",
  "updatedAt": "2022-05-04T13:41:43.602Z",
  "devdoc": {
    "methods": {}
  },
  "userdoc": {
    "methods": {}
  }
}